:100000000C945A000C9477000C9477000C947700B1
:100010000C9477000C9477000C9477000C94770084
:100020000C9477000C9477000C9477000C94770074
:100030000C9477000C9477000C9477000C94770064
:100040000C94EA000C9477000C9477000C947700E1
:100050000C9477000C9477000C9477000C94770044
:100060000C9477000C9477000C9477000C94770034
:100070000C9477000C9477000C9477000C94770024
:100080000C9477000C9477000C9477000C94770014
:100090000C9477000C9477000C9477000C94770004
:1000A0000C9477000C9477000C9477000C947700F4
:1000B0000C94770011241FBECFEFD8E0DEBFCDBF78
:1000C00011E0A0E0B1E0E0EEF6E002C005900D9294
:1000D000AE3BB107D9F721E0AEEBB1E001C01D9214
:1000E000AF3BB207E1F70E94A5000C946E030C949D
:1000F00000001092C50080E18093C40082E08093EC
:10010000C00098E19093C1008093C2000895E0EC94
:10011000F0E0908195FFFDCF8093C6000895CF93C6
:10012000DF93EC018881882331F021960E948700BB
:1001300089918111FBCFDF91CF91089584E4809361
:100140007C0085E880937A0008950E9479000E94DF
:100150009E0081E091E00E948F002FEF89E698E1F8
:10016000215080409040E1F700C0000086E091E01F
:100170000E948F002FEF89E698E121508040904047
:10018000E1F700C0000084E191E00E948F002FEFB2
:1001900089E698E1215080409040E1F700C00000DE
:1001A00088E491E00E948F002FEF89E698E12150CA
:1001B00080409040E1F700C0000014BC85B5846029
:1001C00085BD80E186BDEEE6F0E0808181608083C0
:1001D0007894FFCF1F920F920FB60F9211242F9396
:1001E0003F934F935F936F937F938F939F93AF93BF
:1001F000BF93CF93DF93EF93FF938091BE018F5F07
:100200008093BE0190910001891388C0EAE7F0E075
:10021000808180648083808184FFFDCFEAE7F0E005
:10022000808180618083609178008091790070E0A6
:10023000782B072E000C880B990B0E944D0220E0B2
:1002400030E040E85AE30E94D90220E030E44CE973
:1002500055E40E94D90220E030E040E251E40E94DF
:10026000A3010E941502EB01A09686E591E00E9491
:100270008F002FEF89E698E1215080409040E1F710
:1002800000C0000082E891E00E948F002FEF89E615
:1002900098E1215080409040E1F700C0000082E9E1
:1002A00091E00E948F002FEF89E698E12150804075
:1002B0009040E1F700C00000CE0164E670E00E94CB
:1002C00046036AE070E00E944603C82F80E3860F71
:1002D0000E94870080E38C0F0E9487002FEF89E641
:1002E00098E1215080409040E1F700C000008BEB86
:1002F00091E00E948F002FEF89E698E12150804025
:100300009040E1F700C0000085E491E00E948F007A
:1003100085E491E00E948F001092BE0180E186BDCD
:10032000FF91EF91DF91CF91BF91AF919F918F910D
:100330007F916F915F914F913F912F910F900FBEE1
:100340000F901F9018950E94B7010C949F020E9475
:10035000980258F00E94910240F029F45F3F29F082
:100360000C94880251110C94D3020C948E020E94BA
:10037000B00268F39923B1F3552391F3951B550B04
:10038000BB27AA2762177307840738F09F5F5F4F68
:10039000220F331F441FAA1FA9F335D00E2E3AF0A7
:1003A000E0E832D091505040E695001CCAF72BD0BF
:1003B000FE2F29D0660F771F881FBB1F2617370710
:1003C0004807AB07B0E809F0BB0B802DBF01FF2742
:1003D00093585F4F3AF09E3F510578F00C94880295
:1003E0000C94D3025F3FE4F3983ED4F3869577955F
:1003F0006795B795F7959F5FC9F7880F911D9695FB
:10040000879597F90895E1E0660F771F881FBB1F56
:10041000621773078407BA0720F0621B730B840B03
:10042000BA0BEE1F88F7E09508950E941C026894AD
:10043000B1110C94D30208950E94B80288F09F571E
:1004400098F0B92F9927B751B0F0E1F0660F771FF8
:10045000881F991F1AF0BA95C9F714C0B13091F0EE
:100460000E94D202B1E008950C94D202672F782F37
:100470008827B85F39F0B93FCCF3869577956795B3
:10048000B395D9F73EF490958095709561957F4F1F
:100490008F4F9F4F0895E89409C097FB3EF49095C5
:1004A0008095709561957F4F8F4F9F4F9923A9F04D
:1004B000F92F96E9BB279395F695879577956795DC
:1004C000B795F111F8CFFAF4BB0F11F460FF1BC020
:1004D0006F5F7F4F8F4F9F4F16C0882311F096E9B3
:1004E00011C0772321F09EE8872F762F05C0662361
:1004F00071F096E8862F70E060E02AF09A95660F1A
:10050000771F881FDAF7880F9695879597F90895D2
:1005100097F99F6780E870E060E008959FEF80ECB6
:10052000089500240A941616170618060906089559
:1005300000240A9412161306140605060895092EBF
:100540000394000C11F4882352F0BB0F40F4BF2B2E
:1005500011F460FF04C06F5F7F4F8F4F9F4F08956E
:1005600057FD9058440F551F59F05F3F71F0479564
:10057000880F97FB991F61F09F3F79F08795089549
:10058000121613061406551FF2CF4695F1DF08C068
:10059000161617061806991FF1CF86957105610585
:1005A00008940895E894BB2766277727CB0197F92D
:1005B00008950E94EC020C949F020E94910238F070
:1005C0000E94980220F0952311F00C9488020C945C
:1005D0008E0211240C94D3020E94B00270F3959FF6
:1005E000C1F3950F50E0551F629FF001729FBB272A
:1005F000F00DB11D639FAA27F00DB11DAA1F649FC6
:100600006627B00DA11D661F829F2227B00DA11D78
:10061000621F739FB00DA11D621F839FA00D611DFE
:10062000221F749F3327A00D611D231F849F600D1F
:10063000211D822F762F6A2F11249F5750409AF048
:10064000F1F088234AF0EE0FFF1FBB1F661F771FD4
:10065000881F91505040A9F79E3F510580F00C949F
:1006600088020C94D3025F3FE4F3983ED4F386955E
:1006700077956795B795F795E7959F5FC1F7FE2B3F
:10068000880F911D9695879597F9089597FB072EEA
:1006900016F4009407D077FD09D00E945A0307FC96
:1006A00005D03EF4909581959F4F08957095619582
:1006B0007F4F0895AA1BBB1B51E107C0AA1FBB1F98
:1006C000A617B70710F0A61BB70B881F991F5A95DE
:1006D000A9F780959095BC01CD010895F894FFCFBE
:1006E000FA41540D0A0041542B43574D4F44453DA8
:1006F000330D0A0041542B43574A41503D22526565
:100700006C69616E6365486F6D652D434243343398
:10071000385F3247455854222C2270676166677AE9
:100720006A356633220D0A0041542B4349504D551A
:10073000583D300D0A0041542B4349505354415207
:10074000543D22544350222C226170692E746869F2
:100750006E67737065616B2E636F6D222C38300D80
:100760000A0041542B43495053454E443D35310D09
:100770000A00474554202F7570646174653F6B65AE
:10078000793D3830333145474456304B4A58443828
:0E0790004955266669656C64313D0020000005
:00000001FF
