:100000000C945A000C946C000C946C000C946C00D2
:100010000C946C000C946C000C946C000C946C00B0
:100020000C946C000C946C000C946C000C946C00A0
:100030000C946C000C946C000C946C000C946C0090
:100040000C946C000C946C000C946C000C946C0080
:100050000C946C000C946C000C946C000C946C0070
:100060000C946C000C946C000C946C000C946C0060
:100070000C946C000C946C000C946C000C946C0050
:100080000C946C000C946C000C946C000C946C0040
:100090000C946C000C946C000C946C000C946C0030
:1000A0000C946C000C946C000C946C000C946C0020
:1000B0000C946C0011241FBECFEFD8E0DEBFCDBF83
:1000C00021E0A0E0B1E001C01D92A430B207E1F749
:1000D0000E9475000C94AD010C94000080E48093A4
:1000E0007C008FEE80937A0008958FE084B90E949F
:1000F0006E008DE080938100EAE7F0E0A8E7B0E0D1
:100100000F2EFBE0CF2ED12CF02D41E050E0689473
:10011000EE24E1F8F12C0F2EF3E0AF2EB12CF02DF0
:100120006894882482F8912C0F2EF5E06F2E712CA4
:10013000F02D0F2EF6E04F2E512CF02D0F2EF7E064
:100140002F2E312CF02D0DE010E028E830E08081DA
:1001500084FFFDCF8D919C911197059740F41092EB
:1001600001011092000150930301409302018D910F
:100170009C9111978635910540F4109201011092DF
:100180000001F0920301E09202018D919C91119780
:100190008B3A910540F41092010110920001B09247
:1001A0000301A09202018D919C9111978F3F9105BF
:1001B00009F040F4109201011092000190920301A5
:1001C000809202018D919C9111978535914040F468
:1001D00010920101109200017092030160920201DD
:1001E0008D919C9111978A3A914040F410920101AF
:1001F0001092000150920301409202018D919C9156
:1002000011978F3F914040F410920101109200012C
:1002100030920301209202018D919C9111978435B7
:10022000924050F4109201011092000188E090E099
:1002300090930301809302018D919C911197893ACB
:10024000924050F4109201011092000189E090E078
:1002500090930301809302018D919C9111978E3FA1
:10026000924050F410920101109200018AE090E057
:1002700090930301809302018D919C911197833596
:10028000934040F41092010110920001D0920301BA
:10029000C09202018D919C911197883A934050F43D
:1002A00010920101109200018CE090E09093030104
:1002B000809302018D919C911197883F934040F467
:1002C00010920101109200011093030100930201AA
:1002D0008D919C911197883F934020F0509301019C
:1002E000409300018091020190910301E9019983FB
:1002F0008883C4E8D0E0198218828091000190912F
:100300000101892B09F023CFB19BFECF89E085B98C
:10031000B19AB19BFECF88E085B9B19AB19BFECF6F
:100320008CE085B9B19AB19BFECF84E085B9B19AD2
:10033000B19BFECF86E085B9B19AB19BFECF82E03A
:1003400085B9B19AB19BFECF83E085B9B19AB19BD3
:0E035000FECF81E085B9B19AF6CEF894FFCFCA
:00000001FF
