:100000000C945A000C946C000C946C000C946C00D2
:100010000C9486000C946C000C946C000C946C0096
:100020000C946C000C946C000C946C000C946C00A0
:100030000C946C000C946C000C946C000C946C0090
:100040000C946C000C946C000C946C000C946C0080
:100050000C946C000C946C000C946C000C946C0070
:100060000C946C000C946C000C946C000C946C0060
:100070000C946C000C946C000C946C000C946C0050
:100080000C946C000C946C000C946C000C946C0040
:100090000C946C000C946C000C946C000C946C0030
:1000A0000C946C000C946C000C946C000C946C0020
:1000B0000C946C0011241FBECFEFD8E0DEBFCDBF83
:1000C00021E0A0E0B1E001C01D92A430B207E1F749
:1000D0000E946E000C94D5000C940000569A82E0A9
:1000E00087B9419A229A2A9A93E894BD95E095BDE2
:1000F0008093680080936C0080E480937C00EAE742
:10010000F0E08081876E80837894FFCF1F920F92FA
:100110000FB60F9211242F938F939F93AF93BF939A
:10012000EF93FF93319935C08091000190910101C7
:10013000009719F417BC2A9822C0019701F52A9A52
:10014000EAE7F0E0808180648083808184FD17C0CD
:10015000A8E7B0E08D919C91119793709093030163
:10016000809302018091020190910301880F982FE2
:10017000990F990F890F87BD808184FFEBCF809104
:1001800000019091010121E0822790930101809369
:100190000001FF91EF91BF91AF919F918F912F91AE
:0E01A0000F900FBE0F901F901895F894FFCF90
:00000001FF
