S00D0000536572766F2E7372656308
S11300000C945A000C946C000C946C000C946C00CE
S11300100C946C000C946C000C946C000C946C00AC
S11300200C946C000C946C000C946C000C946C009C
S11300300C946C000C946C000C946C000C946C008C
S11300400C946C000C946C000C946C000C946C007C
S11300500C946C000C946C000C946C000C946C006C
S11300600C946C000C946C000C946C000C946C005C
S11300700C946C000C946C000C946C000C946C004C
S11300800C946C000C946C000C946C000C946C003C
S11300900C946C000C946C000C946C000C946C002C
S11300A00C946C000C946C000C946C000C946C001C
S11300B00C946C0011241FBECFEFD8E0DEBFCDBF7F
S11300C021E0A0E0B1E001C01D92A230B207E1F747
S11300D00E946E000C94BA000C9400008FEF84B957
S11300E0E1E8F0E080818B618083E0E8F0E08081EA
S11300F0826A808387E893E19093870080938600E7
S113010080E680937C0086EA80937A00EAE7F0E058
S1130110A9E7B0E0C8E8D0E027E132E0808180645C
S11301208083808184FFFDCF8C9190E090930101C6
S113013080930001892B59F4198218824FEF89E6C4
S113014098E1415080409040E1F700C00000809168
S11301500001909101018F3F910501F739832883B4
S11301604FEF89E698E1415080409040E1F700C0AC
S10B01700000D4CFF894FFCF86
S9030000FC
