:100000000C945A000C9477000C9477000C947700B1
:100010000C9477000C9477000C9477000C94770084
:100020000C9477000C9477000C9477000C94770074
:100030000C9477000C9477000C9477000C94770064
:100040000C9488000C9477000C9477000C94770043
:100050000C9477000C9477000C9477000C94770044
:100060000C9477000C9477000C9477000C94770034
:100070000C9477000C9477000C9477000C94770024
:100080000C9477000C9477000C9477000C94770014
:100090000C9477000C9477000C9477000C94770004
:1000A0000C9477000C9477000C9477000C947700F4
:1000B0000C94770011241FBECFEFD8E0DEBFCDBF78
:1000C00011E0A0E0B1E0E6E8F1E002C005900D9299
:1000D000A230B107D9F721E0A2E0B1E001C01D9242
:1000E000A330B207E1F70E9479000C94C1000C9490
:1000F00000008FEF84B917B885B914BC8CE086BDB9
:1001000085B5856085BD81E080936E007894FFCFD2
:100110001F920F920FB60F9211248F939F9380918D
:1001200002018F5F8093020190910001891320C02A
:1001300095B188E0892785B92A9A8091000180319C
:1001400059F488E180930001339910C02A9885E51D
:10015000809300012B9A0AC080E1809300013399BB
:1001600005C02A9885E5809300012B9A1092020120
:100170008CE086BD9F918F910F900FBE0F901F90C6
:060180001895F894FFCF72
:02018600100067
:00000001FF
